{
  "_format": "hh-sol-artifact-1",
  "contractName": "TrinityToken",
  "sourceName": "src/TrinityToken.sol",
  "abi": [
    {
      "inputs": [
        {
          "internalType": "address",
          "name": "_founder",
          "type": "address"
        },
        {
          "internalType": "address",
          "name": "_nodeRewards",
          "type": "address"
        },
        {
          "internalType": "address",
          "name": "_community",
          "type": "address"
        },
        {
          "internalType": "address",
          "name": "_treasury",
          "type": "address"
        },
        {
          "internalType": "address",
          "name": "_liquidity",
          "type": "address"
        }
      ],
      "stateMutability": "nonpayable",
      "type": "constructor"
    },
    {
      "inputs": [],
      "name": "ECDSAInvalidSignature",
      "type": "error"
    },
    {
      "inputs": [
        {
          "internalType": "uint256",
          "name": "length",
          "type": "uint256"
        }
      ],
      "name": "ECDSAInvalidSignatureLength",
      "type": "error"
    },
    {
      "inputs": [
        {
          "internalType": "bytes32",
          "name": "s",
          "type": "bytes32"
        }
      ],
      "name": "ECDSAInvalidSignatureS",
      "type": "error"
    },
    {
      "inputs": [
        {
          "internalType": "address",
          "name": "spender",
          "type": "address"
        },
        {
          "internalType": "uint256",
          "name": "allowance",
          "type": "uint256"
        },
        {
          "internalType": "uint256",
          "name": "needed",
          "type": "uint256"
        }
      ],
      "name": "ERC20InsufficientAllowance",
      "type": "error"
    },
    {
      "inputs": [
        {
          "internalType": "address",
          "name": "sender",
          "type": "address"
        },
        {
          "internalType": "uint256",
          "name": "balance",
          "type": "uint256"
        },
        {
          "internalType": "uint256",
          "name": "needed",
          "type": "uint256"
        }
      ],
      "name": "ERC20InsufficientBalance",
      "type": "error"
    },
    {
      "inputs": [
        {
          "internalType": "address",
          "name": "approver",
          "type": "address"
        }
      ],
      "name": "ERC20InvalidApprover",
      "type": "error"
    },
    {
      "inputs": [
        {
          "internalType": "address",
          "name": "receiver",
          "type": "address"
        }
      ],
      "name": "ERC20InvalidReceiver",
      "type": "error"
    },
    {
      "inputs": [
        {
          "internalType": "address",
          "name": "sender",
          "type": "address"
        }
      ],
      "name": "ERC20InvalidSender",
      "type": "error"
    },
    {
      "inputs": [
        {
          "internalType": "address",
          "name": "spender",
          "type": "address"
        }
      ],
      "name": "ERC20InvalidSpender",
      "type": "error"
    },
    {
      "inputs": [
        {
          "internalType": "uint256",
          "name": "deadline",
          "type": "uint256"
        }
      ],
      "name": "ERC2612ExpiredSignature",
      "type": "error"
    },
    {
      "inputs": [
        {
          "internalType": "address",
          "name": "signer",
          "type": "address"
        },
        {
          "internalType": "address",
          "name": "owner",
          "type": "address"
        }
      ],
      "name": "ERC2612InvalidSigner",
      "type": "error"
    },
    {
      "inputs": [
        {
          "internalType": "address",
          "name": "account",
          "type": "address"
        },
        {
          "internalType": "uint256",
          "name": "currentNonce",
          "type": "uint256"
        }
      ],
      "name": "InvalidAccountNonce",
      "type": "error"
    },
    {
      "inputs": [],
      "name": "InvalidShortString",
      "type": "error"
    },
    {
      "inputs": [
        {
          "internalType": "string",
          "name": "str",
          "type": "string"
        }
      ],
      "name": "StringTooLong",
      "type": "error"
    },
    {
      "anonymous": false,
      "inputs": [
        {
          "indexed": true,
          "internalType": "address",
          "name": "beneficiary",
          "type": "address"
        },
        {
          "indexed": false,
          "internalType": "uint256",
          "name": "amount",
          "type": "uint256"
        }
      ],
      "name": "AllocationClaimed",
      "type": "event"
    },
    {
      "anonymous": false,
      "inputs": [
        {
          "indexed": true,
          "internalType": "address",
          "name": "owner",
          "type": "address"
        },
        {
          "indexed": true,
          "internalType": "address",
          "name": "spender",
          "type": "address"
        },
        {
          "indexed": false,
          "internalType": "uint256",
          "name": "value",
          "type": "uint256"
        }
      ],
      "name": "Approval",
      "type": "event"
    },
    {
      "anonymous": false,
      "inputs": [],
      "name": "EIP712DomainChanged",
      "type": "event"
    },
    {
      "anonymous": false,
      "inputs": [
        {
          "indexed": false,
          "internalType": "uint256",
          "name": "result",
          "type": "uint256"
        }
      ],
      "name": "PhiVerified",
      "type": "event"
    },
    {
      "anonymous": false,
      "inputs": [
        {
          "indexed": true,
          "internalType": "address",
          "name": "from",
          "type": "address"
        },
        {
          "indexed": true,
          "internalType": "address",
          "name": "to",
          "type": "address"
        },
        {
          "indexed": false,
          "internalType": "uint256",
          "name": "value",
          "type": "uint256"
        }
      ],
      "name": "Transfer",
      "type": "event"
    },
    {
      "inputs": [],
      "name": "COMMUNITY_ALLOCATION",
      "outputs": [
        {
          "internalType": "uint256",
          "name": "",
          "type": "uint256"
        }
      ],
      "stateMutability": "view",
      "type": "function"
    },
    {
      "inputs": [],
      "name": "DOMAIN_SEPARATOR",
      "outputs": [
        {
          "internalType": "bytes32",
          "name": "",
          "type": "bytes32"
        }
      ],
      "stateMutability": "view",
      "type": "function"
    },
    {
      "inputs": [],
      "name": "FOUNDER_ALLOCATION",
      "outputs": [
        {
          "internalType": "uint256",
          "name": "",
          "type": "uint256"
        }
      ],
      "stateMutability": "view",
      "type": "function"
    },
    {
      "inputs": [],
      "name": "LIQUIDITY_ALLOCATION",
      "outputs": [
        {
          "internalType": "uint256",
          "name": "",
          "type": "uint256"
        }
      ],
      "stateMutability": "view",
      "type": "function"
    },
    {
      "inputs": [],
      "name": "NODE_REWARDS_ALLOCATION",
      "outputs": [
        {
          "internalType": "uint256",
          "name": "",
          "type": "uint256"
        }
      ],
      "stateMutability": "view",
      "type": "function"
    },
    {
      "inputs": [],
      "name": "PHI_SCALED",
      "outputs": [
        {
          "internalType": "uint256",
          "name": "",
          "type": "uint256"
        }
      ],
      "stateMutability": "view",
      "type": "function"
    },
    {
      "inputs": [],
      "name": "PHOENIX_NUMBER",
      "outputs": [
        {
          "internalType": "uint256",
          "name": "",
          "type": "uint256"
        }
      ],
      "stateMutability": "view",
      "type": "function"
    },
    {
      "inputs": [],
      "name": "TOTAL_SUPPLY",
      "outputs": [
        {
          "internalType": "uint256",
          "name": "",
          "type": "uint256"
        }
      ],
      "stateMutability": "view",
      "type": "function"
    },
    {
      "inputs": [],
      "name": "TREASURY_ALLOCATION",
      "outputs": [
        {
          "internalType": "uint256",
          "name": "",
          "type": "uint256"
        }
      ],
      "stateMutability": "view",
      "type": "function"
    },
    {
      "inputs": [
        {
          "internalType": "address",
          "name": "owner",
          "type": "address"
        },
        {
          "internalType": "address",
          "name": "spender",
          "type": "address"
        }
      ],
      "name": "allowance",
      "outputs": [
        {
          "internalType": "uint256",
          "name": "",
          "type": "uint256"
        }
      ],
      "stateMutability": "view",
      "type": "function"
    },
    {
      "inputs": [
        {
          "internalType": "address",
          "name": "spender",
          "type": "address"
        },
        {
          "internalType": "uint256",
          "name": "value",
          "type": "uint256"
        }
      ],
      "name": "approve",
      "outputs": [
        {
          "internalType": "bool",
          "name": "",
          "type": "bool"
        }
      ],
      "stateMutability": "nonpayable",
      "type": "function"
    },
    {
      "inputs": [
        {
          "internalType": "address",
          "name": "account",
          "type": "address"
        }
      ],
      "name": "balanceOf",
      "outputs": [
        {
          "internalType": "uint256",
          "name": "",
          "type": "uint256"
        }
      ],
      "stateMutability": "view",
      "type": "function"
    },
    {
      "inputs": [],
      "name": "circulatingSupply",
      "outputs": [
        {
          "internalType": "uint256",
          "name": "",
          "type": "uint256"
        }
      ],
      "stateMutability": "view",
      "type": "function"
    },
    {
      "inputs": [],
      "name": "claimVested",
      "outputs": [],
      "stateMutability": "nonpayable",
      "type": "function"
    },
    {
      "inputs": [
        {
          "internalType": "address",
          "name": "beneficiary",
          "type": "address"
        }
      ],
      "name": "claimableAmount",
      "outputs": [
        {
          "internalType": "uint256",
          "name": "",
          "type": "uint256"
        }
      ],
      "stateMutability": "view",
      "type": "function"
    },
    {
      "inputs": [
        {
          "internalType": "address",
          "name": "",
          "type": "address"
        }
      ],
      "name": "claimed",
      "outputs": [
        {
          "internalType": "uint256",
          "name": "",
          "type": "uint256"
        }
      ],
      "stateMutability": "view",
      "type": "function"
    },
    {
      "inputs": [
        {
          "internalType": "address",
          "name": "",
          "type": "address"
        }
      ],
      "name": "cliffDuration",
      "outputs": [
        {
          "internalType": "uint256",
          "name": "",
          "type": "uint256"
        }
      ],
      "stateMutability": "view",
      "type": "function"
    },
    {
      "inputs": [],
      "name": "communityAddress",
      "outputs": [
        {
          "internalType": "address",
          "name": "",
          "type": "address"
        }
      ],
      "stateMutability": "view",
      "type": "function"
    },
    {
      "inputs": [],
      "name": "decimals",
      "outputs": [
        {
          "internalType": "uint8",
          "name": "",
          "type": "uint8"
        }
      ],
      "stateMutability": "view",
      "type": "function"
    },
    {
      "inputs": [],
      "name": "eip712Domain",
      "outputs": [
        {
          "internalType": "bytes1",
          "name": "fields",
          "type": "bytes1"
        },
        {
          "internalType": "string",
          "name": "name",
          "type": "string"
        },
        {
          "internalType": "string",
          "name": "version",
          "type": "string"
        },
        {
          "internalType": "uint256",
          "name": "chainId",
          "type": "uint256"
        },
        {
          "internalType": "address",
          "name": "verifyingContract",
          "type": "address"
        },
        {
          "internalType": "bytes32",
          "name": "salt",
          "type": "bytes32"
        },
        {
          "internalType": "uint256[]",
          "name": "extensions",
          "type": "uint256[]"
        }
      ],
      "stateMutability": "view",
      "type": "function"
    },
    {
      "inputs": [],
      "name": "founderAddress",
      "outputs": [
        {
          "internalType": "address",
          "name": "",
          "type": "address"
        }
      ],
      "stateMutability": "view",
      "type": "function"
    },
    {
      "inputs": [],
      "name": "genesisTimestamp",
      "outputs": [
        {
          "internalType": "uint256",
          "name": "",
          "type": "uint256"
        }
      ],
      "stateMutability": "view",
      "type": "function"
    },
    {
      "inputs": [],
      "name": "liquidityAddress",
      "outputs": [
        {
          "internalType": "address",
          "name": "",
          "type": "address"
        }
      ],
      "stateMutability": "view",
      "type": "function"
    },
    {
      "inputs": [],
      "name": "name",
      "outputs": [
        {
          "internalType": "string",
          "name": "",
          "type": "string"
        }
      ],
      "stateMutability": "view",
      "type": "function"
    },
    {
      "inputs": [],
      "name": "nodeRewardsAddress",
      "outputs": [
        {
          "internalType": "address",
          "name": "",
          "type": "address"
        }
      ],
      "stateMutability": "view",
      "type": "function"
    },
    {
      "inputs": [
        {
          "internalType": "address",
          "name": "owner",
          "type": "address"
        }
      ],
      "name": "nonces",
      "outputs": [
        {
          "internalType": "uint256",
          "name": "",
          "type": "uint256"
        }
      ],
      "stateMutability": "view",
      "type": "function"
    },
    {
      "inputs": [
        {
          "internalType": "address",
          "name": "owner",
          "type": "address"
        },
        {
          "internalType": "address",
          "name": "spender",
          "type": "address"
        },
        {
          "internalType": "uint256",
          "name": "value",
          "type": "uint256"
        },
        {
          "internalType": "uint256",
          "name": "deadline",
          "type": "uint256"
        },
        {
          "internalType": "uint8",
          "name": "v",
          "type": "uint8"
        },
        {
          "internalType": "bytes32",
          "name": "r",
          "type": "bytes32"
        },
        {
          "internalType": "bytes32",
          "name": "s",
          "type": "bytes32"
        }
      ],
      "name": "permit",
      "outputs": [],
      "stateMutability": "nonpayable",
      "type": "function"
    },
    {
      "inputs": [
        {
          "internalType": "address",
          "name": "beneficiary",
          "type": "address"
        }
      ],
      "name": "remainingVesting",
      "outputs": [
        {
          "internalType": "uint256",
          "name": "",
          "type": "uint256"
        }
      ],
      "stateMutability": "view",
      "type": "function"
    },
    {
      "inputs": [],
      "name": "symbol",
      "outputs": [
        {
          "internalType": "string",
          "name": "",
          "type": "string"
        }
      ],
      "stateMutability": "view",
      "type": "function"
    },
    {
      "inputs": [],
      "name": "totalSupply",
      "outputs": [
        {
          "internalType": "uint256",
          "name": "",
          "type": "uint256"
        }
      ],
      "stateMutability": "view",
      "type": "function"
    },
    {
      "inputs": [
        {
          "internalType": "address",
          "name": "",
          "type": "address"
        }
      ],
      "name": "totalVested",
      "outputs": [
        {
          "internalType": "uint256",
          "name": "",
          "type": "uint256"
        }
      ],
      "stateMutability": "view",
      "type": "function"
    },
    {
      "inputs": [
        {
          "internalType": "address",
          "name": "to",
          "type": "address"
        },
        {
          "internalType": "uint256",
          "name": "value",
          "type": "uint256"
        }
      ],
      "name": "transfer",
      "outputs": [
        {
          "internalType": "bool",
          "name": "",
          "type": "bool"
        }
      ],
      "stateMutability": "nonpayable",
      "type": "function"
    },
    {
      "inputs": [
        {
          "internalType": "address",
          "name": "from",
          "type": "address"
        },
        {
          "internalType": "address",
          "name": "to",
          "type": "address"
        },
        {
          "internalType": "uint256",
          "name": "value",
          "type": "uint256"
        }
      ],
      "name": "transferFrom",
      "outputs": [
        {
          "internalType": "bool",
          "name": "",
          "type": "bool"
        }
      ],
      "stateMutability": "nonpayable",
      "type": "function"
    },
    {
      "inputs": [],
      "name": "treasuryAddress",
      "outputs": [
        {
          "internalType": "address",
          "name": "",
          "type": "address"
        }
      ],
      "stateMutability": "view",
      "type": "function"
    },
    {
      "inputs": [
        {
          "internalType": "address",
          "name": "beneficiary",
          "type": "address"
        }
      ],
      "name": "vestedAmount",
      "outputs": [
        {
          "internalType": "uint256",
          "name": "",
          "type": "uint256"
        }
      ],
      "stateMutability": "view",
      "type": "function"
    },
    {
      "inputs": [
        {
          "internalType": "address",
          "name": "",
          "type": "address"
        }
      ],
      "name": "vestingDuration",
      "outputs": [
        {
          "internalType": "uint256",
          "name": "",
          "type": "uint256"
        }
      ],
      "stateMutability": "view",
      "type": "function"
    },
    {
      "inputs": [
        {
          "internalType": "address",
          "name": "",
          "type": "address"
        }
      ],
      "name": "vestingStart",
      "outputs": [
        {
          "internalType": "uint256",
          "name": "",
          "type": "uint256"
        }
      ],
      "stateMutability": "view",
      "type": "function"
    }
  ],
  "bytecode": "0x6102206040523480156200001257600080fd5b506040516200219638038062002196833981016040819052620000359162000891565b604051806040016040528060078152602001665472696e69747960c81b81525080604051806040016040528060018152602001603160f81b815250604051806040016040528060078152602001665472696e69747960c81b8152506040518060400160405280600381526020016254524960e81b8152508160039081620000bd9190620009a6565b506004620000cc8282620009a6565b50620000de9150839050600562000586565b61012052620000ef81600662000586565b61014052815160208084019190912060e052815190820120610100524660a0526200017d60e05161010051604080517f8b73c3c69bb8fe3d512ecc4cf759cc79239f7b179b0ffacaa9a75d522b39400f60208201529081019290925260608201524660808201523060a082015260009060c00160405160208183030381529060405280519060200120905090565b60805250503060c052506001600160a01b038516620001d55760405162461bcd60e51b815260206004820152600f60248201526e24b73b30b634b2103337bab73232b960891b60448201526064015b60405180910390fd5b6001600160a01b0384166200022d5760405162461bcd60e51b815260206004820152601360248201527f496e76616c6964206e6f646552657761726473000000000000000000000000006044820152606401620001cc565b6001600160a01b038316620002795760405162461bcd60e51b8152602060048201526011602482015270496e76616c696420636f6d6d756e69747960781b6044820152606401620001cc565b6001600160a01b038216620002c45760405162461bcd60e51b815260206004820152601060248201526f496e76616c696420747265617375727960801b6044820152606401620001cc565b6001600160a01b038116620003105760405162461bcd60e51b8152602060048201526011602482015270496e76616c6964206c697175696469747960781b6044820152606401620001cc565b42610160526001600160a01b03808616610180528481166101a0528381166101c0528281166101e052811661020052620003be8560646200035f64026f7c52b3670de0b6b3a764000062000a88565b6200036c90601462000a88565b62000378919062000aa2565b6001600160a01b039190911660009081526008602090815260408083204290556009825280832063076a70009055600a82528083206301da9c009055600b909152902055565b62000439846064620003de64026f7c52b3670de0b6b3a764000062000a88565b620003eb90602862000a88565b620003f7919062000aa2565b6001600160a01b039190911660009081526008602090815260408083204290556009825280832063128a18009055600a8252808320839055600b909152902055565b620004b48360646200045964026f7c52b3670de0b6b3a764000062000a88565b6200046690601462000a88565b62000472919062000aa2565b6001600160a01b039190911660009081526008602090815260408083204290556009825280832063058fd4009055600a8252808320839055600b909152902055565b62000532826064620004d464026f7c52b3670de0b6b3a764000062000a88565b620004e190600a62000a88565b620004ed919062000aa2565b6001600160a01b03919091166000908152600860209081526040808320429055600982528083206309450c009055600a825280832062ed4e009055600b909152902055565b620005718160646200055264026f7c52b3670de0b6b3a764000062000a88565b6200055f90600a62000a88565b6200056b919062000aa2565b620005bf565b6200057b620005fd565b505050505062000b50565b6000602083511015620005a6576200059e83620006fe565b9050620005b9565b81620005b38482620009a6565b5060ff90505b92915050565b6001600160a01b038216620005eb5760405163ec442f0560e01b815260006004820152602401620001cc565b620005f96000838362000741565b5050565b6000670de0b6b3a76400006200061c67167469570df225588062000a88565b62000628919062000aa2565b9050600062000647826ec097ce7bc90715b34b9f100000000062000aa2565b9050600062000657828462000ac5565b905067299e969c51658000811180156200067857506729a5b1999af2800081105b620006c65760405162461bcd60e51b815260206004820152601760248201527f5472696e697479206964656e74697479206661696c65640000000000000000006044820152606401620001cc565b6040518181527fdfd74f80a19a4c9aec1225c99d2d7d3b891b5b05f92fcc06a04c211bc0ec89009060200160405180910390a1505050565b600080829050601f815111156200072c578260405163305a27a960e01b8152600401620001cc919062000adb565b8051620007398262000b2b565b179392505050565b6001600160a01b0383166200077057806002600082825462000764919062000ac5565b90915550620007e49050565b6001600160a01b03831660009081526020819052604090205481811015620007c55760405163391434e360e21b81526001600160a01b03851660048201526024810182905260448101839052606401620001cc565b6001600160a01b03841660009081526020819052604090209082900390555b6001600160a01b038216620008025760028054829003905562000821565b6001600160a01b03821660009081526020819052604090208054820190555b816001600160a01b0316836001600160a01b03167fddf252ad1be2c89b69c2b068fc378daa952ba7f163c4a11628f55a4df523b3ef836040516200086791815260200190565b60405180910390a3505050565b80516001600160a01b03811681146200088c57600080fd5b919050565b600080600080600060a08688031215620008aa57600080fd5b620008b58662000874565b9450620008c56020870162000874565b9350620008d56040870162000874565b9250620008e56060870162000874565b9150620008f56080870162000874565b90509295509295909350565b634e487b7160e01b600052604160045260246000fd5b600181811c908216806200092c57607f821691505b6020821081036200094d57634e487b7160e01b600052602260045260246000fd5b50919050565b601f821115620009a157600081815260208120601f850160051c810160208610156200097c5750805b601f850160051c820191505b818110156200099d5782815560010162000988565b5050505b505050565b81516001600160401b03811115620009c257620009c262000901565b620009da81620009d3845462000917565b8462000953565b602080601f83116001811462000a125760008415620009f95750858301515b600019600386901b1c1916600185901b1785556200099d565b600085815260208120601f198616915b8281101562000a435788860151825594840194600190910190840162000a22565b508582101562000a625787850151600019600388901b60f8161c191681555b5050505050600190811b01905550565b634e487b7160e01b600052601160045260246000fd5b8082028115828204841417620005b957620005b962000a72565b60008262000ac057634e487b7160e01b600052601260045260246000fd5b500490565b80820180821115620005b957620005b962000a72565b600060208083528351808285015260005b8181101562000b0a5785810183015185820160400152820162000aec565b506000604082860101526040601f19601f8301168501019250505092915050565b805160208083015191908110156200094d5760001960209190910360031b1b16919050565b60805160a05160c05160e05161010051610120516101405161016051610180516101a0516101c0516101e051610200516115a962000bed60003960006103310152600061049901526000610404015260006102e301526000610373015260006104e001526000610d2801526000610cfb01526000610ca301526000610c7b01526000610bd601526000610c0001526000610c2a01526115a96000f3fe608060405234801561001057600080fd5b50600436106102275760003560e01c80638988504911610130578063c5f956af116100b8578063d505accf1161007c578063d505accf1461052c578063dd62ed3e1461053f578063f331856514610578578063f9428f381461048c578063fb0707981461058757600080fd5b8063c5f956af14610494578063c884ef83146104bb578063cacf66ab146104db578063ce2f3f6414610502578063d01c44cd1461052257600080fd5b806395d89b41116100ff57806395d89b4114610451578063993eb1c514610449578063a9059cbb14610459578063b13e4a9d1461046c578063bf1ad7e01461048c57600080fd5b80638988504914610426578063902d55a5146104395780639358928b1461044157806394d32a5d1461044957600080fd5b80633221c93f116101b357806370a082311161018257806370a08231146103955780637ecebe00146103be5780638482296d146103d157806384b0196e146103e457806386e476dd146103ff57600080fd5b80633221c93f1461032c5780633644e51514610353578063384711cc1461035b57806346bb28331461036e57600080fd5b806318160ddd116101fa57806318160ddd146102b757806323b872dd146102bf57806324d48c76146102d25780632a98f05f146102de578063313ce5671461031d57600080fd5b8063032bbf4f1461022c57806306fdde031461025f578063095ea7b31461027457806312a1449914610297575b600080fd5b61024c61023a366004611298565b60086020526000908152604090205481565b6040519081526020015b60405180910390f35b61026761058f565b60405161025691906112f9565b61028761028236600461130c565b610621565b6040519015158152602001610256565b61024c6102a5366004611298565b60096020526000908152604090205481565b60025461024c565b6102876102cd366004611336565b61063b565b61024c64026f7c52b381565b6103057f000000000000000000000000000000000000000000000000000000000000000081565b6040516001600160a01b039091168152602001610256565b60405160128152602001610256565b6103057f000000000000000000000000000000000000000000000000000000000000000081565b61024c61065f565b61024c610369366004611298565b61066e565b6103057f000000000000000000000000000000000000000000000000000000000000000081565b61024c6103a3366004611298565b6001600160a01b031660009081526020819052604090205490565b61024c6103cc366004611298565b610761565b61024c6103df366004611298565b61077f565b6103ec6107ad565b6040516102569796959493929190611372565b6103057f000000000000000000000000000000000000000000000000000000000000000081565b61024c610434366004611298565b6107f3565b61024c61081f565b61024c610839565b61024c610844565b610267610872565b61028761046736600461130c565b610881565b61024c61047a366004611298565b600b6020526000908152604090205481565b61024c61088f565b6103057f000000000000000000000000000000000000000000000000000000000000000081565b61024c6104c9366004611298565b600c6020526000908152604090205481565b61024c7f000000000000000000000000000000000000000000000000000000000000000081565b61024c610510366004611298565b600a6020526000908152604090205481565b61052a6108b3565b005b61052a61053a366004611408565b61097b565b61024c61054d36600461147b565b6001600160a01b03918216600090815260016020908152604080832093909416825291909152205490565b61024c67167469570df2255881565b61024c610ab5565b60606003805461059e906114ae565b80601f01602080910402602001604051908101604052809291908181526020018280546105ca906114ae565b80156106175780601f106105ec57610100808354040283529160200191610617565b820191906000526020600020905b8154815290600101906020018083116105fa57829003601f168201915b5050505050905090565b60003361062f818585610ad9565b60019150505b92915050565b600033610649858285610aeb565b610654858585610b6a565b506001949350505050565b6000610669610bc9565b905090565b6001600160a01b0381166000908152600b6020526040812054810361069557506000919050565b6001600160a01b0382166000908152600860205260408120546106b890426114fe565b6001600160a01b0384166000908152600a60205260409020549091508110156106e45750600092915050565b6001600160a01b03831660009081526009602052604090205481106107205750506001600160a01b03166000908152600b602052604090205490565b6001600160a01b038316600090815260096020908152604080832054600b90925290912054610750908390611511565b61075a9190611528565b9392505050565b6001600160a01b038116600090815260076020526040812054610635565b600061078a8261066e565b6001600160a01b0383166000908152600b602052604090205461063591906114fe565b6000606080600080600060606107c1610cf4565b6107c9610d21565b60408051600080825260208201909252600f60f81b9b939a50919850469750309650945092509050565b6001600160a01b0381166000908152600c60205260408120546108158361066e565b61063591906114fe565b61083664026f7c52b3670de0b6b3a7640000611511565b81565b600061066960025490565b606461085d64026f7c52b3670de0b6b3a7640000611511565b610868906014611511565b6108369190611528565b60606004805461059e906114ae565b60003361062f818585610b6a565b60646108a864026f7c52b3670de0b6b3a7640000611511565b61086890600a611511565b60006108be3361066e565b336000908152600c6020526040812054919250906108dc90836114fe565b9050600081116109265760405162461bcd60e51b815260206004820152601060248201526f4e6f7468696e6720746f20636c61696d60801b60448201526064015b60405180910390fd5b336000818152600c602052604090208390556109429082610d4e565b60405181815233907f1747857504b94e5be51b1fe4b467e5d2daa63a0d21577089a13fa99f9414dcc89060200160405180910390a25050565b8342111561099f5760405163313c898160e11b81526004810185905260240161091d565b60007f6e71edae12b1b97f4d1f60370fef10105fa2faae0126114a169c64845d6126c98888886109ec8c6001600160a01b0316600090815260076020526040902080546001810190915590565b6040805160208101969096526001600160a01b0394851690860152929091166060840152608083015260a082015260c0810186905260e0016040516020818303038152906040528051906020012090506000610a4782610d88565b90506000610a5782878787610db5565b9050896001600160a01b0316816001600160a01b031614610a9e576040516325c0072360e11b81526001600160a01b0380831660048301528b16602482015260440161091d565b610aa98a8a8a610ad9565b50505050505050505050565b6064610ace64026f7c52b3670de0b6b3a7640000611511565b610868906028611511565b610ae68383836001610de3565b505050565b6001600160a01b03838116600090815260016020908152604080832093861683529290522054600019811015610b645781811015610b5557604051637dc7a0d960e11b81526001600160a01b0384166004820152602481018290526044810183905260640161091d565b610b6484848484036000610de3565b50505050565b6001600160a01b038316610b9457604051634b637e8f60e11b81526000600482015260240161091d565b6001600160a01b038216610bbe5760405163ec442f0560e01b81526000600482015260240161091d565b610ae6838383610eb8565b6000306001600160a01b037f000000000000000000000000000000000000000000000000000000000000000016148015610c2257507f000000000000000000000000000000000000000000000000000000000000000046145b15610c4c57507f000000000000000000000000000000000000000000000000000000000000000090565b610669604080517f8b73c3c69bb8fe3d512ecc4cf759cc79239f7b179b0ffacaa9a75d522b39400f60208201527f0000000000000000000000000000000000000000000000000000000000000000918101919091527f000000000000000000000000000000000000000000000000000000000000000060608201524660808201523060a082015260009060c00160405160208183030381529060405280519060200120905090565b60606106697f00000000000000000000000000000000000000000000000000000000000000006005610fe2565b60606106697f00000000000000000000000000000000000000000000000000000000000000006006610fe2565b6001600160a01b038216610d785760405163ec442f0560e01b81526000600482015260240161091d565b610d8460008383610eb8565b5050565b6000610635610d95610bc9565b8360405161190160f01b8152600281019290925260228201526042902090565b600080600080610dc78888888861108d565b925092509250610dd7828261115c565b50909695505050505050565b6001600160a01b038416610e0d5760405163e602df0560e01b81526000600482015260240161091d565b6001600160a01b038316610e3757604051634a1406b160e11b81526000600482015260240161091d565b6001600160a01b0380851660009081526001602090815260408083209387168352929052208290558015610b6457826001600160a01b0316846001600160a01b03167f8c5be1e5ebec7d5bd14f71427d1e84f3dd0314c0f7b2291e5b200ac8c7c3b92584604051610eaa91815260200190565b60405180910390a350505050565b6001600160a01b038316610ee3578060026000828254610ed8919061154a565b90915550610f559050565b6001600160a01b03831660009081526020819052604090205481811015610f365760405163391434e360e21b81526001600160a01b0385166004820152602481018290526044810183905260640161091d565b6001600160a01b03841660009081526020819052604090209082900390555b6001600160a01b038216610f7157600280548290039055610f90565b6001600160a01b03821660009081526020819052604090208054820190555b816001600160a01b0316836001600160a01b03167fddf252ad1be2c89b69c2b068fc378daa952ba7f163c4a11628f55a4df523b3ef83604051610fd591815260200190565b60405180910390a3505050565b606060ff8314610ffc57610ff583611215565b9050610635565b818054611008906114ae565b80601f0160208091040260200160405190810160405280929190818152602001828054611034906114ae565b80156110815780601f1061105657610100808354040283529160200191611081565b820191906000526020600020905b81548152906001019060200180831161106457829003601f168201915b50505050509050610635565b600080807f7fffffffffffffffffffffffffffffff5d576e7357a4501ddfe92f46681b20a08411156110c85750600091506003905082611152565b604080516000808252602082018084528a905260ff891692820192909252606081018790526080810186905260019060a0016020604051602081039080840390855afa15801561111c573d6000803e3d6000fd5b5050604051601f1901519150506001600160a01b03811661114857506000925060019150829050611152565b9250600091508190505b9450945094915050565b60008260038111156111705761117061155d565b03611179575050565b600182600381111561118d5761118d61155d565b036111ab5760405163f645eedf60e01b815260040160405180910390fd5b60028260038111156111bf576111bf61155d565b036111e05760405163fce698f760e01b81526004810182905260240161091d565b60038260038111156111f4576111f461155d565b03610d84576040516335e2f38360e21b81526004810182905260240161091d565b6060600061122283611254565b604080516020808252818301909252919250600091906020820181803683375050509182525060208101929092525090565b600060ff8216601f81111561063557604051632cd44ac360e21b815260040160405180910390fd5b80356001600160a01b038116811461129357600080fd5b919050565b6000602082840312156112aa57600080fd5b61075a8261127c565b6000815180845260005b818110156112d9576020818501810151868301820152016112bd565b506000602082860101526020601f19601f83011685010191505092915050565b60208152600061075a60208301846112b3565b6000806040838503121561131f57600080fd5b6113288361127c565b946020939093013593505050565b60008060006060848603121561134b57600080fd5b6113548461127c565b92506113626020850161127c565b9150604084013590509250925092565b60ff60f81b881681526000602060e08184015261139260e084018a6112b3565b83810360408501526113a4818a6112b3565b606085018990526001600160a01b038816608086015260a0850187905284810360c0860152855180825283870192509083019060005b818110156113f6578351835292840192918401916001016113da565b50909c9b505050505050505050505050565b600080600080600080600060e0888a03121561142357600080fd5b61142c8861127c565b965061143a6020890161127c565b95506040880135945060608801359350608088013560ff8116811461145e57600080fd5b9699959850939692959460a0840135945060c09093013592915050565b6000806040838503121561148e57600080fd5b6114978361127c565b91506114a56020840161127c565b90509250929050565b600181811c908216806114c257607f821691505b6020821081036114e257634e487b7160e01b600052602260045260246000fd5b50919050565b634e487b7160e01b600052601160045260246000fd5b81810381811115610635576106356114e8565b8082028115828204841417610635576106356114e8565b60008261154557634e487b7160e01b600052601260045260246000fd5b500490565b80820180821115610635576106356114e8565b634e487b7160e01b600052602160045260246000fdfea26469706673582212204341aa4a7d084c6693673b7f4e8a4159fc60d609503b41891e8bee6dd1db6d0464736f6c63430008140033",
  "linkReferences": {},
  "deployedLinkReferences": {}
}